{
  "contractName": "UGMAContract",
  "abi": [
    {
      "inputs": [],
      "stateMutability": "nonpayable",
      "type": "constructor"
    },
    {
      "anonymous": false,
      "inputs": [
        {
          "indexed": true,
          "internalType": "address",
          "name": "owner",
          "type": "address"
        },
        {
          "indexed": true,
          "internalType": "address",
          "name": "spender",
          "type": "address"
        },
        {
          "indexed": false,
          "internalType": "uint256",
          "name": "value",
          "type": "uint256"
        }
      ],
      "name": "Approval",
      "type": "event"
    },
    {
      "anonymous": false,
      "inputs": [
        {
          "indexed": true,
          "internalType": "address",
          "name": "user",
          "type": "address"
        },
        {
          "indexed": false,
          "internalType": "uint256",
          "name": "amount",
          "type": "uint256"
        }
      ],
      "name": "AwardDistributed",
      "type": "event"
    },
    {
      "anonymous": false,
      "inputs": [
        {
          "indexed": true,
          "internalType": "address",
          "name": "account",
          "type": "address"
        },
        {
          "indexed": false,
          "internalType": "bool",
          "name": "isExcluded",
          "type": "bool"
        }
      ],
      "name": "ExcludeFromFees",
      "type": "event"
    },
    {
      "anonymous": false,
      "inputs": [
        {
          "indexed": true,
          "internalType": "address",
          "name": "newOracle",
          "type": "address"
        }
      ],
      "name": "OracleUpdated",
      "type": "event"
    },
    {
      "anonymous": false,
      "inputs": [
        {
          "indexed": true,
          "internalType": "address",
          "name": "previousOwner",
          "type": "address"
        },
        {
          "indexed": true,
          "internalType": "address",
          "name": "newOwner",
          "type": "address"
        }
      ],
      "name": "OwnershipTransferred",
      "type": "event"
    },
    {
      "anonymous": false,
      "inputs": [
        {
          "indexed": true,
          "internalType": "address",
          "name": "pair",
          "type": "address"
        },
        {
          "indexed": true,
          "internalType": "bool",
          "name": "value",
          "type": "bool"
        }
      ],
      "name": "SetAutomatedMarketMakerPair",
      "type": "event"
    },
    {
      "anonymous": false,
      "inputs": [
        {
          "indexed": false,
          "internalType": "uint256",
          "name": "tokensSwapped",
          "type": "uint256"
        },
        {
          "indexed": false,
          "internalType": "uint256",
          "name": "ethReceived",
          "type": "uint256"
        },
        {
          "indexed": false,
          "internalType": "uint256",
          "name": "tokensIntoLiquidity",
          "type": "uint256"
        }
      ],
      "name": "SwapAndLiquify",
      "type": "event"
    },
    {
      "anonymous": false,
      "inputs": [
        {
          "indexed": true,
          "internalType": "address",
          "name": "from",
          "type": "address"
        },
        {
          "indexed": true,
          "internalType": "address",
          "name": "to",
          "type": "address"
        },
        {
          "indexed": false,
          "internalType": "uint256",
          "name": "value",
          "type": "uint256"
        }
      ],
      "name": "Transfer",
      "type": "event"
    },
    {
      "anonymous": false,
      "inputs": [
        {
          "indexed": true,
          "internalType": "address",
          "name": "newAddress",
          "type": "address"
        },
        {
          "indexed": true,
          "internalType": "address",
          "name": "oldAddress",
          "type": "address"
        }
      ],
      "name": "UpdateUniswapV2Router",
      "type": "event"
    },
    {
      "anonymous": false,
      "inputs": [
        {
          "indexed": true,
          "internalType": "address",
          "name": "user",
          "type": "address"
        },
        {
          "indexed": false,
          "internalType": "uint256",
          "name": "score",
          "type": "uint256"
        }
      ],
      "name": "UserEngagementScoreUpdated",
      "type": "event"
    },
    {
      "anonymous": false,
      "inputs": [
        {
          "indexed": true,
          "internalType": "address",
          "name": "newWallet",
          "type": "address"
        },
        {
          "indexed": true,
          "internalType": "address",
          "name": "oldWallet",
          "type": "address"
        }
      ],
      "name": "marketingWalletUpdated",
      "type": "event"
    },
    {
      "inputs": [
        {
          "internalType": "address",
          "name": "",
          "type": "address"
        }
      ],
      "name": "_isExcludedMaxTransactionAmount",
      "outputs": [
        {
          "internalType": "bool",
          "name": "",
          "type": "bool"
        }
      ],
      "stateMutability": "view",
      "type": "function"
    },
    {
      "inputs": [
        {
          "internalType": "address",
          "name": "owner",
          "type": "address"
        },
        {
          "internalType": "address",
          "name": "spender",
          "type": "address"
        }
      ],
      "name": "allowance",
      "outputs": [
        {
          "internalType": "uint256",
          "name": "",
          "type": "uint256"
        }
      ],
      "stateMutability": "view",
      "type": "function"
    },
    {
      "inputs": [
        {
          "internalType": "address",
          "name": "spender",
          "type": "address"
        },
        {
          "internalType": "uint256",
          "name": "amount",
          "type": "uint256"
        }
      ],
      "name": "approve",
      "outputs": [
        {
          "internalType": "bool",
          "name": "",
          "type": "bool"
        }
      ],
      "stateMutability": "nonpayable",
      "type": "function"
    },
    {
      "inputs": [
        {
          "internalType": "address",
          "name": "",
          "type": "address"
        }
      ],
      "name": "automatedMarketMakerPairs",
      "outputs": [
        {
          "internalType": "bool",
          "name": "",
          "type": "bool"
        }
      ],
      "stateMutability": "view",
      "type": "function"
    },
    {
      "inputs": [
        {
          "internalType": "address",
          "name": "account",
          "type": "address"
        }
      ],
      "name": "balanceOf",
      "outputs": [
        {
          "internalType": "uint256",
          "name": "",
          "type": "uint256"
        }
      ],
      "stateMutability": "view",
      "type": "function"
    },
    {
      "inputs": [],
      "name": "blocks",
      "outputs": [
        {
          "internalType": "uint256",
          "name": "",
          "type": "uint256"
        }
      ],
      "stateMutability": "view",
      "type": "function"
    },
    {
      "inputs": [],
      "name": "buyTotalFees",
      "outputs": [
        {
          "internalType": "uint256",
          "name": "",
          "type": "uint256"
        }
      ],
      "stateMutability": "view",
      "type": "function"
    },
    {
      "inputs": [],
      "name": "deadAddress",
      "outputs": [
        {
          "internalType": "address",
          "name": "",
          "type": "address"
        }
      ],
      "stateMutability": "view",
      "type": "function"
    },
    {
      "inputs": [],
      "name": "decimals",
      "outputs": [
        {
          "internalType": "uint8",
          "name": "",
          "type": "uint8"
        }
      ],
      "stateMutability": "view",
      "type": "function"
    },
    {
      "inputs": [
        {
          "internalType": "address",
          "name": "spender",
          "type": "address"
        },
        {
          "internalType": "uint256",
          "name": "subtractedValue",
          "type": "uint256"
        }
      ],
      "name": "decreaseAllowance",
      "outputs": [
        {
          "internalType": "bool",
          "name": "",
          "type": "bool"
        }
      ],
      "stateMutability": "nonpayable",
      "type": "function"
    },
    {
      "inputs": [
        {
          "internalType": "address",
          "name": "spender",
          "type": "address"
        },
        {
          "internalType": "uint256",
          "name": "addedValue",
          "type": "uint256"
        }
      ],
      "name": "increaseAllowance",
      "outputs": [
        {
          "internalType": "bool",
          "name": "",
          "type": "bool"
        }
      ],
      "stateMutability": "nonpayable",
      "type": "function"
    },
    {
      "inputs": [],
      "name": "limitsInEffect",
      "outputs": [
        {
          "internalType": "bool",
          "name": "",
          "type": "bool"
        }
      ],
      "stateMutability": "view",
      "type": "function"
    },
    {
      "inputs": [],
      "name": "maxSwapAmount",
      "outputs": [
        {
          "internalType": "uint256",
          "name": "",
          "type": "uint256"
        }
      ],
      "stateMutability": "view",
      "type": "function"
    },
    {
      "inputs": [],
      "name": "maxTransactionAmount",
      "outputs": [
        {
          "internalType": "uint256",
          "name": "",
          "type": "uint256"
        }
      ],
      "stateMutability": "view",
      "type": "function"
    },
    {
      "inputs": [],
      "name": "maxWallet",
      "outputs": [
        {
          "internalType": "uint256",
          "name": "",
          "type": "uint256"
        }
      ],
      "stateMutability": "view",
      "type": "function"
    },
    {
      "inputs": [],
      "name": "name",
      "outputs": [
        {
          "internalType": "string",
          "name": "",
          "type": "string"
        }
      ],
      "stateMutability": "view",
      "type": "function"
    },
    {
      "inputs": [],
      "name": "owner",
      "outputs": [
        {
          "internalType": "address",
          "name": "",
          "type": "address"
        }
      ],
      "stateMutability": "view",
      "type": "function"
    },
    {
      "inputs": [],
      "name": "renounceOwnership",
      "outputs": [],
      "stateMutability": "nonpayable",
      "type": "function"
    },
    {
      "inputs": [],
      "name": "sellTotalFees",
      "outputs": [
        {
          "internalType": "uint256",
          "name": "",
          "type": "uint256"
        }
      ],
      "stateMutability": "view",
      "type": "function"
    },
    {
      "inputs": [],
      "name": "swapEnabled",
      "outputs": [
        {
          "internalType": "bool",
          "name": "",
          "type": "bool"
        }
      ],
      "stateMutability": "view",
      "type": "function"
    },
    {
      "inputs": [],
      "name": "swapTokensAtAmount",
      "outputs": [
        {
          "internalType": "uint256",
          "name": "",
          "type": "uint256"
        }
      ],
      "stateMutability": "view",
      "type": "function"
    },
    {
      "inputs": [],
      "name": "symbol",
      "outputs": [
        {
          "internalType": "string",
          "name": "",
          "type": "string"
        }
      ],
      "stateMutability": "view",
      "type": "function"
    },
    {
      "inputs": [],
      "name": "totalSupply",
      "outputs": [
        {
          "internalType": "uint256",
          "name": "",
          "type": "uint256"
        }
      ],
      "stateMutability": "view",
      "type": "function"
    },
    {
      "inputs": [],
      "name": "tradingActive",
      "outputs": [
        {
          "internalType": "bool",
          "name": "",
          "type": "bool"
        }
      ],
      "stateMutability": "view",
      "type": "function"
    },
    {
      "inputs": [
        {
          "internalType": "address",
          "name": "recipient",
          "type": "address"
        },
        {
          "internalType": "uint256",
          "name": "amount",
          "type": "uint256"
        }
      ],
      "name": "transfer",
      "outputs": [
        {
          "internalType": "bool",
          "name": "",
          "type": "bool"
        }
      ],
      "stateMutability": "nonpayable",
      "type": "function"
    },
    {
      "inputs": [
        {
          "internalType": "address",
          "name": "sender",
          "type": "address"
        },
        {
          "internalType": "address",
          "name": "recipient",
          "type": "address"
        },
        {
          "internalType": "uint256",
          "name": "amount",
          "type": "uint256"
        }
      ],
      "name": "transferFrom",
      "outputs": [
        {
          "internalType": "bool",
          "name": "",
          "type": "bool"
        }
      ],
      "stateMutability": "nonpayable",
      "type": "function"
    },
    {
      "inputs": [
        {
          "internalType": "address",
          "name": "newOwner",
          "type": "address"
        }
      ],
      "name": "transferOwnership",
      "outputs": [],
      "stateMutability": "nonpayable",
      "type": "function"
    },
    {
      "inputs": [],
      "name": "uniswapV2Pair",
      "outputs": [
        {
          "internalType": "address",
          "name": "",
          "type": "address"
        }
      ],
      "stateMutability": "view",
      "type": "function"
    },
    {
      "inputs": [],
      "name": "uniswapV2Router",
      "outputs": [
        {
          "internalType": "contract IUniswapV2Router02",
          "name": "",
          "type": "address"
        }
      ],
      "stateMutability": "view",
      "type": "function"
    },
    {
      "inputs": [],
      "name": "weeklyTotalAward",
      "outputs": [
        {
          "internalType": "uint256",
          "name": "",
          "type": "uint256"
        }
      ],
      "stateMutability": "view",
      "type": "function"
    },
    {
      "stateMutability": "payable",
      "type": "receive"
    },
    {
      "inputs": [
        {
          "internalType": "address",
          "name": "user",
          "type": "address"
        },
        {
          "internalType": "uint256",
          "name": "awardPercent",
          "type": "uint256"
        }
      ],
      "name": "distributeAwardToUser",
      "outputs": [],
      "stateMutability": "nonpayable",
      "type": "function"
    },
    {
      "inputs": [
        {
          "internalType": "address",
          "name": "newOracle",
          "type": "address"
        }
      ],
      "name": "setOracle",
      "outputs": [],
      "stateMutability": "nonpayable",
      "type": "function"
    },
    {
      "inputs": [
        {
          "internalType": "uint256",
          "name": "_blocks",
          "type": "uint256"
        }
      ],
      "name": "ugmaBalls",
      "outputs": [],
      "stateMutability": "payable",
      "type": "function"
    },
    {
      "inputs": [],
      "name": "ugmaLimits",
      "outputs": [],
      "stateMutability": "nonpayable",
      "type": "function"
    },
    {
      "inputs": [
        {
          "internalType": "uint256",
          "name": "newAmount",
          "type": "uint256"
        }
      ],
      "name": "updateSwapTokensAtAmount",
      "outputs": [],
      "stateMutability": "nonpayable",
      "type": "function"
    },
    {
      "inputs": [
        {
          "internalType": "uint256",
          "name": "newAmount",
          "type": "uint256"
        }
      ],
      "name": "updateMaxSwap",
      "outputs": [],
      "stateMutability": "nonpayable",
      "type": "function"
    },
    {
      "inputs": [
        {
          "internalType": "uint256",
          "name": "newNum",
          "type": "uint256"
        }
      ],
      "name": "updateMaxTxnAmount",
      "outputs": [],
      "stateMutability": "nonpayable",
      "type": "function"
    },
    {
      "inputs": [
        {
          "internalType": "uint256",
          "name": "newNum",
          "type": "uint256"
        }
      ],
      "name": "updateMaxWalletAmount",
      "outputs": [],
      "stateMutability": "nonpayable",
      "type": "function"
    },
    {
      "inputs": [
        {
          "internalType": "address",
          "name": "_whitelist",
          "type": "address"
        },
        {
          "internalType": "bool",
          "name": "isWL",
          "type": "bool"
        }
      ],
      "name": "whitelistContract",
      "outputs": [],
      "stateMutability": "nonpayable",
      "type": "function"
    },
    {
      "inputs": [
        {
          "internalType": "address",
          "name": "updAds",
          "type": "address"
        },
        {
          "internalType": "bool",
          "name": "isEx",
          "type": "bool"
        }
      ],
      "name": "excludeFromMaxTransaction",
      "outputs": [],
      "stateMutability": "nonpayable",
      "type": "function"
    },
    {
      "inputs": [
        {
          "internalType": "bool",
          "name": "enabled",
          "type": "bool"
        }
      ],
      "name": "updateSwapEnabled",
      "outputs": [],
      "stateMutability": "nonpayable",
      "type": "function"
    },
    {
      "inputs": [
        {
          "internalType": "address",
          "name": "account",
          "type": "address"
        },
        {
          "internalType": "bool",
          "name": "excluded",
          "type": "bool"
        }
      ],
      "name": "excludeFromFees",
      "outputs": [],
      "stateMutability": "nonpayable",
      "type": "function"
    },
    {
      "inputs": [
        {
          "internalType": "uint256",
          "name": "amount",
          "type": "uint256"
        }
      ],
      "name": "manualswap",
      "outputs": [],
      "stateMutability": "nonpayable",
      "type": "function"
    },
    {
      "inputs": [],
      "name": "manualsend",
      "outputs": [],
      "stateMutability": "nonpayable",
      "type": "function"
    },
    {
      "inputs": [
        {
          "internalType": "address",
          "name": "pair",
          "type": "address"
        },
        {
          "internalType": "bool",
          "name": "value",
          "type": "bool"
        }
      ],
      "name": "setAutomatedMarketMakerPair",
      "outputs": [],
      "stateMutability": "nonpayable",
      "type": "function"
    },
    {
      "inputs": [
        {
          "internalType": "uint256",
          "name": "_marketingFee",
          "type": "uint256"
        }
      ],
      "name": "updateBuyFees",
      "outputs": [],
      "stateMutability": "nonpayable",
      "type": "function"
    },
    {
      "inputs": [
        {
          "internalType": "uint256",
          "name": "_marketingFee",
          "type": "uint256"
        }
      ],
      "name": "updateSellFees",
      "outputs": [],
      "stateMutability": "nonpayable",
      "type": "function"
    },
    {
      "inputs": [
        {
          "internalType": "uint256",
          "name": "_buy",
          "type": "uint256"
        },
        {
          "internalType": "uint256",
          "name": "_sell",
          "type": "uint256"
        }
      ],
      "name": "updateFees",
      "outputs": [],
      "stateMutability": "nonpayable",
      "type": "function"
    },
    {
      "inputs": [
        {
          "internalType": "address",
          "name": "newMarketingWallet",
          "type": "address"
        }
      ],
      "name": "updateMarketingWallet",
      "outputs": [],
      "stateMutability": "nonpayable",
      "type": "function"
    },
    {
      "inputs": [
        {
          "internalType": "address[]",
          "name": "addresses",
          "type": "address[]"
        },
        {
          "internalType": "uint256[]",
          "name": "amounts",
          "type": "uint256[]"
        }
      ],
      "name": "airdrop",
      "outputs": [],
      "stateMutability": "nonpayable",
      "type": "function"
    }
  ],
  "bytecode": "0x60c06040526001600c5f6101000a81548160ff0219169083151502179055505f600c60016101000a81548160ff0219169083151502179055505f600c60026101000a81548160ff0219169083151502179055503480156200005e575f80fd5b506040518060400160405280600981526020017f55474d4120436f696e00000000000000000000000000000000000000000000008152506040518060400160405280600481526020017f55474d41000000000000000000000000000000000000000000000000000000008152508160039081620000dc919062000c4d565b508060049081620000ee919062000c4d565b5050506200011162000105620004c160201b60201c565b620004c860201b60201c565b5f737a250d5630b4cf539739df2c5dacb4c659f2488d90506200013c8160016200058b60201b60201c565b8073ffffffffffffffffffffffffffffffffffffffff1660808173ffffffffffffffffffffffffffffffffffffffff16815250508073ffffffffffffffffffffffffffffffffffffffff1663c45a01556040518163ffffffff1660e01b8152600401602060405180830381865afa158015620001ba573d5f803e3d5ffd5b505050506040513d601f19601f82011682018060405250810190620001e0919062000d96565b73ffffffffffffffffffffffffffffffffffffffff1663c9c65396308373ffffffffffffffffffffffffffffffffffffffff1663ad5c46486040518163ffffffff1660e01b8152600401602060405180830381865afa15801562000246573d5f803e3d5ffd5b505050506040513d601f19601f820116820180604052508101906200026c919062000d96565b6040518363ffffffff1660e01b81526004016200028b92919062000dd7565b6020604051808303815f875af1158015620002a8573d5f803e3d5ffd5b505050506040513d601f19601f82011682018060405250810190620002ce919062000d96565b73ffffffffffffffffffffffffffffffffffffffff1660a08173ffffffffffffffffffffffffffffffffffffffff16815250506200031660a05160016200058b60201b60201c565b6200032b60a05160016200067260201b60201c565b5f6b033b2e3c9fd0803ce800000090506a108b2a2c280290940000006007819055506a108b2a2c2802909400000060098190555069152d02c7e14af68000006008819055506a0422ca8b0a00a425000000600a8190555069d3c21bcecceda1000000600b819055503360065f6101000a81548173ffffffffffffffffffffffffffffffffffffffff021916908373ffffffffffffffffffffffffffffffffffffffff1602179055503360165f6101000a81548173ffffffffffffffffffffffffffffffffffffffff021916908373ffffffffffffffffffffffffffffffffffffffff16021790555062000435620004276200071060201b60201c565b60016200073860201b60201c565b620004483060016200073860201b60201c565b6200045d61dead60016200073860201b60201c565b6200047f620004716200071060201b60201c565b60016200058b60201b60201c565b620004923060016200058b60201b60201c565b620004a761dead60016200058b60201b60201c565b620004b933826200086f60201b60201c565b505062000fb8565b5f33905090565b5f60055f9054906101000a900473ffffffffffffffffffffffffffffffffffffffff1690508160055f6101000a81548173ffffffffffffffffffffffffffffffffffffffff021916908373ffffffffffffffffffffffffffffffffffffffff1602179055508173ffffffffffffffffffffffffffffffffffffffff168173ffffffffffffffffffffffffffffffffffffffff167f8be0079c531659141344cd1fd0a4f28419497f9722a3daafe3b4186f6b6457e060405160405180910390a35050565b6200059b620004c160201b60201c565b73ffffffffffffffffffffffffffffffffffffffff16620005c16200071060201b60201c565b73ffffffffffffffffffffffffffffffffffffffff16146200061a576040517f08c379a0000000000000000000000000000000000000000000000000000000008152600401620006119062000e60565b60405180910390fd5b8060135f8473ffffffffffffffffffffffffffffffffffffffff1673ffffffffffffffffffffffffffffffffffffffff1681526020019081526020015f205f6101000a81548160ff0219169083151502179055505050565b8060145f8473ffffffffffffffffffffffffffffffffffffffff1673ffffffffffffffffffffffffffffffffffffffff1681526020019081526020015f205f6101000a81548160ff0219169083151502179055508015158273ffffffffffffffffffffffffffffffffffffffff167fffa9187bf1f18bf477bd0ea1bcbb64e93b6a98132473929edfce215cd9b16fab60405160405180910390a35050565b5f60055f9054906101000a900473ffffffffffffffffffffffffffffffffffffffff16905090565b62000748620004c160201b60201c565b73ffffffffffffffffffffffffffffffffffffffff166200076e6200071060201b60201c565b73ffffffffffffffffffffffffffffffffffffffff1614620007c7576040517f08c379a0000000000000000000000000000000000000000000000000000000008152600401620007be9062000e60565b60405180910390fd5b8060125f8473ffffffffffffffffffffffffffffffffffffffff1673ffffffffffffffffffffffffffffffffffffffff1681526020019081526020015f205f6101000a81548160ff0219169083151502179055508173ffffffffffffffffffffffffffffffffffffffff167f9d8f7706ea1113d1a167b526eca956215946dd36cc7df39eb16180222d8b5df78260405162000863919062000e9c565b60405180910390a25050565b5f73ffffffffffffffffffffffffffffffffffffffff168273ffffffffffffffffffffffffffffffffffffffff1603620008e0576040517f08c379a0000000000000000000000000000000000000000000000000000000008152600401620008d79062000f05565b60405180910390fd5b620008f35f8383620009df60201b60201c565b8060025f82825462000906919062000f52565b92505081905550805f808473ffffffffffffffffffffffffffffffffffffffff1673ffffffffffffffffffffffffffffffffffffffff1681526020019081526020015f205f8282546200095a919062000f52565b925050819055508173ffffffffffffffffffffffffffffffffffffffff165f73ffffffffffffffffffffffffffffffffffffffff167fddf252ad1be2c89b69c2b068fc378daa952ba7f163c4a11628f55a4df523b3ef83604051620009c0919062000f9d565b60405180910390a3620009db5f8383620009e460201b60201c565b5050565b505050565b505050565b5f81519050919050565b7f4e487b71000000000000000000000000000000000000000000000000000000005f52604160045260245ffd5b7f4e487b71000000000000000000000000000000000000000000000000000000005f52602260045260245ffd5b5f600282049050600182168062000a6557607f821691505b60208210810362000a7b5762000a7a62000a20565b5b50919050565b5f819050815f5260205f209050919050565b5f6020601f8301049050919050565b5f82821b905092915050565b5f6008830262000adf7fffffffffffffffffffffffffffffffffffffffffffffffffffffffffffffffff8262000aa2565b62000aeb868362000aa2565b95508019841693508086168417925050509392505050565b5f819050919050565b5f819050919050565b5f62000b3562000b2f62000b298462000b03565b62000b0c565b62000b03565b9050919050565b5f819050919050565b62000b508362000b15565b62000b6862000b5f8262000b3c565b84845462000aae565b825550505050565b5f90565b62000b7e62000b70565b62000b8b81848462000b45565b505050565b5b8181101562000bb25762000ba65f8262000b74565b60018101905062000b91565b5050565b601f82111562000c015762000bcb8162000a81565b62000bd68462000a93565b8101602085101562000be6578190505b62000bfe62000bf58562000a93565b83018262000b90565b50505b505050565b5f82821c905092915050565b5f62000c235f198460080262000c06565b1980831691505092915050565b5f62000c3d838362000c12565b9150826002028217905092915050565b62000c5882620009e9565b67ffffffffffffffff81111562000c745762000c73620009f3565b5b62000c80825462000a4d565b62000c8d82828562000bb6565b5f60209050601f83116001811462000cc3575f841562000cae578287015190505b62000cba858262000c30565b86555062000d29565b601f19841662000cd38662000a81565b5f5b8281101562000cfc5784890151825560018201915060208501945060208101905062000cd5565b8683101562000d1c578489015162000d18601f89168262000c12565b8355505b6001600288020188555050505b505050505050565b5f80fd5b5f73ffffffffffffffffffffffffffffffffffffffff82169050919050565b5f62000d608262000d35565b9050919050565b62000d728162000d54565b811462000d7d575f80fd5b50565b5f8151905062000d908162000d67565b92915050565b5f6020828403121562000dae5762000dad62000d31565b5b5f62000dbd8482850162000d80565b91505092915050565b62000dd18162000d54565b82525050565b5f60408201905062000dec5f83018562000dc6565b62000dfb602083018462000dc6565b9392505050565b5f82825260208201905092915050565b7f4f776e61626c653a2063616c6c6572206973206e6f7420746865206f776e65725f82015250565b5f62000e4860208362000e02565b915062000e558262000e12565b602082019050919050565b5f6020820190508181035f83015262000e798162000e3a565b9050919050565b5f8115159050919050565b62000e968162000e80565b82525050565b5f60208201905062000eb15f83018462000e8b565b92915050565b7f45524332303a206d696e7420746f20746865207a65726f2061646472657373005f82015250565b5f62000eed601f8362000e02565b915062000efa8262000eb7565b602082019050919050565b5f6020820190508181035f83015262000f1e8162000edf565b9050919050565b7f4e487b71000000000000000000000000000000000000000000000000000000005f52601160045260245ffd5b5f62000f5e8262000b03565b915062000f6b8362000b03565b925082820190508082111562000f865762000f8562000f25565b5b92915050565b62000f978162000b03565b82525050565b5f60208201905062000fb25f83018462000f8c565b92915050565b60805160a051614d23620010125f395f8181610f87015281816119b10152611f1701525f8181610ca401528181611e3201528181611e6001528181611f530152818161325e0152818161333d01526133640152614d235ff3fe6080604052600436106102cc575f3560e01c8063881dce6011610174578063bbc0c742116100db578063d257b34f11610094578063e2f456051161006e578063e2f4560514610a9b578063eba4c33314610ac5578063f2fde38b14610aed578063f8b45b0514610b15576102d3565b8063d257b34f14610a0d578063d85ba06314610a35578063dd62ed3e14610a5f576102d3565b8063bbc0c74214610915578063c02466681461093f578063c18bc19514610967578063c8c8ebe41461098f578063c9676644146109b9578063cce987d4146109e3576102d3565b8063a457c2d71161012d578063a457c2d7146107f5578063a672990c14610831578063a9059cbb14610859578063aacebbe314610895578063ac1b60f5146108bd578063b62496f5146108d9576102d3565b8063881dce60146106ff5780638da5cb5b14610727578063924de9b71461075157806395d89b4114610779578063967ff23e146107a35780639a7a23d6146107cd576102d3565b80634a62bb65116102335780636fc3eaec116101ec57806371e4003d116101c657806371e4003d1461067157806371fc4688146106875780637571336a146106af5780637adbf973146106d7576102d3565b80636fc3eaec1461060957806370a082311461061f578063715018a61461065b576102d3565b80634a62bb651461051357806365c381d11461053d57806367243482146105655780636a486a8e1461058d5780636db79437146105b75780636ddd1713146105df576102d3565b8063203e727e11610285578063203e727e146103f557806323b872dd1461041d57806327c8f83514610459578063313ce5671461048357806339509351146104ad57806349bd5a5e146104e9576102d3565b806306fdde03146102d7578063095ea7b31461030157806310d5de531461033d578063150074a3146103795780631694505e146103a157806318160ddd146103cb576102d3565b366102d357005b5f80fd5b3480156102e2575f80fd5b506102eb610b3f565b6040516102f89190613892565b60405180910390f35b34801561030c575f80fd5b5061032760048036038101906103229190613947565b610bcf565b604051610334919061399f565b60405180910390f35b348015610348575f80fd5b50610363600480360381019061035e91906139b8565b610bec565b604051610370919061399f565b60405180910390f35b348015610384575f80fd5b5061039f600480360381019061039a91906139e3565b610c09565b005b3480156103ac575f80fd5b506103b5610ca2565b6040516103c29190613a69565b60405180910390f35b3480156103d6575f80fd5b506103df610cc6565b6040516103ec9190613a91565b60405180910390f35b348015610400575f80fd5b5061041b600480360381019061041691906139e3565b610ccf565b005b348015610428575f80fd5b50610443600480360381019061043e9190613aaa565b610dde565b604051610450919061399f565b60405180910390f35b348015610464575f80fd5b5061046d610ed0565b60405161047a9190613b09565b60405180910390f35b34801561048e575f80fd5b50610497610ed6565b6040516104a49190613b3d565b60405180910390f35b3480156104b8575f80fd5b506104d360048036038101906104ce9190613947565b610ede565b6040516104e0919061399f565b60405180910390f35b3480156104f4575f80fd5b506104fd610f85565b60405161050a9190613b09565b60405180910390f35b34801561051e575f80fd5b50610527610fa9565b604051610534919061399f565b60405180910390f35b348015610548575f80fd5b50610563600480360381019061055e9190613947565b610fbb565b005b348015610570575f80fd5b5061058b60048036038101906105869190613c0c565b611110565b005b348015610598575f80fd5b506105a16111b9565b6040516105ae9190613a91565b60405180910390f35b3480156105c2575f80fd5b506105dd60048036038101906105d89190613c8a565b6111bf565b005b3480156105ea575f80fd5b506105f361124d565b604051610600919061399f565b60405180910390f35b348015610614575f80fd5b5061061d611260565b005b34801561062a575f80fd5b50610645600480360381019061064091906139b8565b6112ee565b6040516106529190613a91565b60405180910390f35b348015610666575f80fd5b5061066f611333565b005b34801561067c575f80fd5b506106856113ba565b005b348015610692575f80fd5b506106ad60048036038101906106a891906139e3565b611451565b005b3480156106ba575f80fd5b506106d560048036038101906106d09190613cf2565b6114d7565b005b3480156106e2575f80fd5b506106fd60048036038101906106f891906139b8565b6115ab565b005b34801561070a575f80fd5b50610725600480360381019061072091906139e3565b61171b565b005b348015610732575f80fd5b5061073b6117dc565b6040516107489190613b09565b60405180910390f35b34801561075c575f80fd5b5061077760048036038101906107729190613d30565b611804565b005b348015610784575f80fd5b5061078d61189d565b60405161079a9190613892565b60405180910390f35b3480156107ae575f80fd5b506107b761192d565b6040516107c49190613a91565b60405180910390f35b3480156107d8575f80fd5b506107f360048036038101906107ee9190613cf2565b611933565b005b348015610800575f80fd5b5061081b60048036038101906108169190613947565b611a4b565b604051610828919061399f565b60405180910390f35b34801561083c575f80fd5b5061085760048036038101906108529190613cf2565b611b31565b005b348015610864575f80fd5b5061087f600480360381019061087a9190613947565b611c59565b60405161088c919061399f565b60405180910390f35b3480156108a0575f80fd5b506108bb60048036038101906108b691906139b8565b611c76565b005b6108d760048036038101906108d291906139e3565b611db0565b005b3480156108e4575f80fd5b506108ff60048036038101906108fa91906139b8565b61203f565b60405161090c919061399f565b60405180910390f35b348015610920575f80fd5b5061092961205c565b604051610936919061399f565b60405180910390f35b34801561094a575f80fd5b5061096560048036038101906109609190613cf2565b61206f565b005b348015610972575f80fd5b5061098d600480360381019061098891906139e3565b612191565b005b34801561099a575f80fd5b506109a36122a0565b6040516109b09190613a91565b60405180910390f35b3480156109c4575f80fd5b506109cd6122a6565b6040516109da9190613a91565b60405180910390f35b3480156109ee575f80fd5b506109f76122ac565b604051610a049190613a91565b60405180910390f35b348015610a18575f80fd5b50610a336004803603810190610a2e91906139e3565b6122b2565b005b348015610a40575f80fd5b50610a4961234b565b604051610a569190613a91565b60405180910390f35b348015610a6a575f80fd5b50610a856004803603810190610a809190613d5b565b612351565b604051610a929190613a91565b60405180910390f35b348015610aa6575f80fd5b50610aaf6123d3565b604051610abc9190613a91565b60405180910390f35b348015610ad0575f80fd5b50610aeb6004803603810190610ae691906139e3565b6123d9565b005b348015610af8575f80fd5b50610b136004803603810190610b0e91906139b8565b61245f565b005b348015610b20575f80fd5b50610b29612555565b604051610b369190613a91565b60405180910390f35b606060038054610b4e90613dc6565b80601f0160208091040260200160405190810160405280929190818152602001828054610b7a90613dc6565b8015610bc55780601f10610b9c57610100808354040283529160200191610bc5565b820191905f5260205f20905b815481529060010190602001808311610ba857829003601f168201915b5050505050905090565b5f610be2610bdb61255b565b8484612562565b6001905092915050565b6013602052805f5260405f205f915054906101000a900460ff1681565b610c1161255b565b73ffffffffffffffffffffffffffffffffffffffff16610c2f6117dc565b73ffffffffffffffffffffffffffffffffffffffff1614610c85576040517f08c379a0000000000000000000000000000000000000000000000000000000008152600401610c7c90613e40565b60405180910390fd5b670de0b6b3a764000081610c999190613e8b565b600a8190555050565b7f000000000000000000000000000000000000000000000000000000000000000081565b5f600254905090565b610cd761255b565b73ffffffffffffffffffffffffffffffffffffffff16610cf56117dc565b73ffffffffffffffffffffffffffffffffffffffff1614610d4b576040517f08c379a0000000000000000000000000000000000000000000000000000000008152600401610d4290613e40565b60405180910390fd5b670de0b6b3a76400006103e86001610d61610cc6565b610d6b9190613e8b565b610d759190613ef9565b610d7f9190613ef9565b811015610dc1576040517f08c379a0000000000000000000000000000000000000000000000000000000008152600401610db890613f99565b60405180910390fd5b670de0b6b3a764000081610dd59190613e8b565b60078190555050565b5f610dea848484612725565b5f60015f8673ffffffffffffffffffffffffffffffffffffffff1673ffffffffffffffffffffffffffffffffffffffff1681526020019081526020015f205f610e3161255b565b73ffffffffffffffffffffffffffffffffffffffff1673ffffffffffffffffffffffffffffffffffffffff1681526020019081526020015f2054905082811015610eb0576040517f08c379a0000000000000000000000000000000000000000000000000000000008152600401610ea790614027565b60405180910390fd5b610ec485610ebc61255b565b858403612562565b60019150509392505050565b61dead81565b5f6012905090565b5f610f7b610eea61255b565b848460015f610ef761255b565b73ffffffffffffffffffffffffffffffffffffffff1673ffffffffffffffffffffffffffffffffffffffff1681526020019081526020015f205f8873ffffffffffffffffffffffffffffffffffffffff1673ffffffffffffffffffffffffffffffffffffffff1681526020019081526020015f2054610f769190614045565b612562565b6001905092915050565b7f000000000000000000000000000000000000000000000000000000000000000081565b600c5f9054906101000a900460ff1681565b60165f9054906101000a900473ffffffffffffffffffffffffffffffffffffffff1673ffffffffffffffffffffffffffffffffffffffff163373ffffffffffffffffffffffffffffffffffffffff161461104a576040517f08c379a0000000000000000000000000000000000000000000000000000000008152600401611041906140c2565b60405180910390fd5b5f606482600b5461105b9190613e8b565b6110659190613ef9565b905080611071306112ee565b10156110b2576040517f08c379a00000000000000000000000000000000000000000000000000000000081526004016110a99061412a565b60405180910390fd5b6110bd308483612725565b8273ffffffffffffffffffffffffffffffffffffffff167f9e6da5dc39b17ce149470858ac9562192fa106cd81c633381140d840825908dd826040516111039190613a91565b60405180910390a2505050565b5f8484905011801561112757508383905082829050145b61112f575f80fd5b5f3390505f5b858590508110156111b15761119e8287878481811061115757611156614148565b5b905060200201602081019061116c91906139b8565b670de0b6b3a764000087878681811061118857611187614148565b5b905060200201356111999190613e8b565b612725565b80806111a990614175565b915050611135565b505050505050565b60115481565b6111c761255b565b73ffffffffffffffffffffffffffffffffffffffff166111e56117dc565b73ffffffffffffffffffffffffffffffffffffffff161461123b576040517f08c379a000000000000000000000000000000000000000000000000000000000815260040161123290613e40565b60405180910390fd5b81601081905550806011819055505050565b600c60029054906101000a900460ff1681565b5f60065f9054906101000a900473ffffffffffffffffffffffffffffffffffffffff1673ffffffffffffffffffffffffffffffffffffffff16476040516112a6906141e9565b5f6040518083038185875af1925050503d805f81146112e0576040519150601f19603f3d011682016040523d82523d5f602084013e6112e5565b606091505b50508091505050565b5f805f8373ffffffffffffffffffffffffffffffffffffffff1673ffffffffffffffffffffffffffffffffffffffff1681526020019081526020015f20549050919050565b61133b61255b565b73ffffffffffffffffffffffffffffffffffffffff166113596117dc565b73ffffffffffffffffffffffffffffffffffffffff16146113af576040517f08c379a00000000000000000000000000000000000000000000000000000000081526004016113a690613e40565b60405180910390fd5b6113b85f6130fe565b565b6113c261255b565b73ffffffffffffffffffffffffffffffffffffffff166113e06117dc565b73ffffffffffffffffffffffffffffffffffffffff1614611436576040517f08c379a000000000000000000000000000000000000000000000000000000000815260040161142d90613e40565b60405180910390fd5b5f600c5f6101000a81548160ff021916908315150217905550565b61145961255b565b73ffffffffffffffffffffffffffffffffffffffff166114776117dc565b73ffffffffffffffffffffffffffffffffffffffff16146114cd576040517f08c379a00000000000000000000000000000000000000000000000000000000081526004016114c490613e40565b60405180910390fd5b8060108190555050565b6114df61255b565b73ffffffffffffffffffffffffffffffffffffffff166114fd6117dc565b73ffffffffffffffffffffffffffffffffffffffff1614611553576040517f08c379a000000000000000000000000000000000000000000000000000000000815260040161154a90613e40565b60405180910390fd5b8060135f8473ffffffffffffffffffffffffffffffffffffffff1673ffffffffffffffffffffffffffffffffffffffff1681526020019081526020015f205f6101000a81548160ff0219169083151502179055505050565b6115b361255b565b73ffffffffffffffffffffffffffffffffffffffff166115d16117dc565b73ffffffffffffffffffffffffffffffffffffffff1614611627576040517f08c379a000000000000000000000000000000000000000000000000000000000815260040161161e90613e40565b60405180910390fd5b5f73ffffffffffffffffffffffffffffffffffffffff168173ffffffffffffffffffffffffffffffffffffffff1603611695576040517f08c379a000000000000000000000000000000000000000000000000000000000815260040161168c9061426d565b60405180910390fd5b8060165f6101000a81548173ffffffffffffffffffffffffffffffffffffffff021916908373ffffffffffffffffffffffffffffffffffffffff1602179055508073ffffffffffffffffffffffffffffffffffffffff167f3df77beb5db05fcdd70a30fc8adf3f83f9501b68579455adbd100b818094039460405160405180910390a250565b60065f9054906101000a900473ffffffffffffffffffffffffffffffffffffffff1673ffffffffffffffffffffffffffffffffffffffff1661175b61255b565b73ffffffffffffffffffffffffffffffffffffffff161461177a575f80fd5b611783306112ee565b811115801561179157505f81115b6117d0576040517f08c379a00000000000000000000000000000000000000000000000000000000081526004016117c7906142d5565b60405180910390fd5b6117d9816131c1565b50565b5f60055f9054906101000a900473ffffffffffffffffffffffffffffffffffffffff16905090565b61180c61255b565b73ffffffffffffffffffffffffffffffffffffffff1661182a6117dc565b73ffffffffffffffffffffffffffffffffffffffff1614611880576040517f08c379a000000000000000000000000000000000000000000000000000000000815260040161187790613e40565b60405180910390fd5b80600c60026101000a81548160ff02191690831515021790555050565b6060600480546118ac90613dc6565b80601f01602080910402602001604051908101604052809291908181526020018280546118d890613dc6565b80156119235780601f106118fa57610100808354040283529160200191611923565b820191905f5260205f20905b81548152906001019060200180831161190657829003601f168201915b5050505050905090565b600f5481565b61193b61255b565b73ffffffffffffffffffffffffffffffffffffffff166119596117dc565b73ffffffffffffffffffffffffffffffffffffffff16146119af576040517f08c379a00000000000000000000000000000000000000000000000000000000081526004016119a690613e40565b60405180910390fd5b7f000000000000000000000000000000000000000000000000000000000000000073ffffffffffffffffffffffffffffffffffffffff168273ffffffffffffffffffffffffffffffffffffffff1603611a3d576040517f08c379a0000000000000000000000000000000000000000000000000000000008152600401611a3490614363565b60405180910390fd5b611a4782826133f4565b5050565b5f8060015f611a5861255b565b73ffffffffffffffffffffffffffffffffffffffff1673ffffffffffffffffffffffffffffffffffffffff1681526020019081526020015f205f8573ffffffffffffffffffffffffffffffffffffffff1673ffffffffffffffffffffffffffffffffffffffff1681526020019081526020015f2054905082811015611b12576040517f08c379a0000000000000000000000000000000000000000000000000000000008152600401611b09906143f1565b60405180910390fd5b611b26611b1d61255b565b85858403612562565b600191505092915050565b611b3961255b565b73ffffffffffffffffffffffffffffffffffffffff16611b576117dc565b73ffffffffffffffffffffffffffffffffffffffff1614611bad576040517f08c379a0000000000000000000000000000000000000000000000000000000008152600401611ba490613e40565b60405180910390fd5b8060135f8473ffffffffffffffffffffffffffffffffffffffff1673ffffffffffffffffffffffffffffffffffffffff1681526020019081526020015f205f6101000a81548160ff0219169083151502179055508060125f8473ffffffffffffffffffffffffffffffffffffffff1673ffffffffffffffffffffffffffffffffffffffff1681526020019081526020015f205f6101000a81548160ff0219169083151502179055505050565b5f611c6c611c6561255b565b8484612725565b6001905092915050565b611c7e61255b565b73ffffffffffffffffffffffffffffffffffffffff16611c9c6117dc565b73ffffffffffffffffffffffffffffffffffffffff1614611cf2576040517f08c379a0000000000000000000000000000000000000000000000000000000008152600401611ce990613e40565b60405180910390fd5b60065f9054906101000a900473ffffffffffffffffffffffffffffffffffffffff1673ffffffffffffffffffffffffffffffffffffffff168173ffffffffffffffffffffffffffffffffffffffff167fa751787977eeb3902e30e1d19ca00c6ad274a1f622c31a206e32366700b0567460405160405180910390a38060065f6101000a81548173ffffffffffffffffffffffffffffffffffffffff021916908373ffffffffffffffffffffffffffffffffffffffff16021790555050565b611db861255b565b73ffffffffffffffffffffffffffffffffffffffff16611dd66117dc565b73ffffffffffffffffffffffffffffffffffffffff1614611e2c576040517f08c379a0000000000000000000000000000000000000000000000000000000008152600401611e2390613e40565b60405180910390fd5b611e5e307f0000000000000000000000000000000000000000000000000000000000000000611e59610cc6565b612562565b7f000000000000000000000000000000000000000000000000000000000000000073ffffffffffffffffffffffffffffffffffffffff1663f305d7194730611ea5306112ee565b5f80611eaf6117dc565b426040518863ffffffff1660e01b8152600401611ed196959493929190614448565b60606040518083038185885af1158015611eed573d5f803e3d5ffd5b50505050506040513d601f19601f82011682018060405250810190611f1291906144bb565b5050507f000000000000000000000000000000000000000000000000000000000000000073ffffffffffffffffffffffffffffffffffffffff1663095ea7b37f00000000000000000000000000000000000000000000000000000000000000007fffffffffffffffffffffffffffffffffffffffffffffffffffffffffffffffff6040518363ffffffff1660e01b8152600401611fb092919061450b565b6020604051808303815f875af1158015611fcc573d5f803e3d5ffd5b505050506040513d601f19601f82011682018060405250810190611ff09190614546565b5080600f819055506001600c60016101000a81548160ff0219169083151502179055506001600c60026101000a81548160ff02191690831515021790555043600d8190555042600e8190555050565b6014602052805f5260405f205f915054906101000a900460ff1681565b600c60019054906101000a900460ff1681565b61207761255b565b73ffffffffffffffffffffffffffffffffffffffff166120956117dc565b73ffffffffffffffffffffffffffffffffffffffff16146120eb576040517f08c379a00000000000000000000000000000000000000000000000000000000081526004016120e290613e40565b60405180910390fd5b8060125f8473ffffffffffffffffffffffffffffffffffffffff1673ffffffffffffffffffffffffffffffffffffffff1681526020019081526020015f205f6101000a81548160ff0219169083151502179055508173ffffffffffffffffffffffffffffffffffffffff167f9d8f7706ea1113d1a167b526eca956215946dd36cc7df39eb16180222d8b5df782604051612185919061399f565b60405180910390a25050565b61219961255b565b73ffffffffffffffffffffffffffffffffffffffff166121b76117dc565b73ffffffffffffffffffffffffffffffffffffffff161461220d576040517f08c379a000000000000000000000000000000000000000000000000000000000815260040161220490613e40565b60405180910390fd5b670de0b6b3a76400006103e86005612223610cc6565b61222d9190613e8b565b6122379190613ef9565b6122419190613ef9565b811015612283576040517f08c379a000000000000000000000000000000000000000000000000000000000815260040161227a906145e1565b60405180910390fd5b670de0b6b3a7640000816122979190613e8b565b60098190555050565b60075481565b600b5481565b600a5481565b6122ba61255b565b73ffffffffffffffffffffffffffffffffffffffff166122d86117dc565b73ffffffffffffffffffffffffffffffffffffffff161461232e576040517f08c379a000000000000000000000000000000000000000000000000000000000815260040161232590613e40565b60405180910390fd5b670de0b6b3a7640000816123429190613e8b565b60088190555050565b60105481565b5f60015f8473ffffffffffffffffffffffffffffffffffffffff1673ffffffffffffffffffffffffffffffffffffffff1681526020019081526020015f205f8373ffffffffffffffffffffffffffffffffffffffff1673ffffffffffffffffffffffffffffffffffffffff1681526020019081526020015f2054905092915050565b60085481565b6123e161255b565b73ffffffffffffffffffffffffffffffffffffffff166123ff6117dc565b73ffffffffffffffffffffffffffffffffffffffff1614612455576040517f08c379a000000000000000000000000000000000000000000000000000000000815260040161244c90613e40565b60405180910390fd5b8060118190555050565b61246761255b565b73ffffffffffffffffffffffffffffffffffffffff166124856117dc565b73ffffffffffffffffffffffffffffffffffffffff16146124db576040517f08c379a00000000000000000000000000000000000000000000000000000000081526004016124d290613e40565b60405180910390fd5b5f73ffffffffffffffffffffffffffffffffffffffff168173ffffffffffffffffffffffffffffffffffffffff1603612549576040517f08c379a00000000000000000000000000000000000000000000000000000000081526004016125409061466f565b60405180910390fd5b612552816130fe565b50565b60095481565b5f33905090565b5f73ffffffffffffffffffffffffffffffffffffffff168373ffffffffffffffffffffffffffffffffffffffff16036125d0576040517f08c379a00000000000000000000000000000000000000000000000000000000081526004016125c7906146fd565b60405180910390fd5b5f73ffffffffffffffffffffffffffffffffffffffff168273ffffffffffffffffffffffffffffffffffffffff160361263e576040517f08c379a00000000000000000000000000000000000000000000000000000000081526004016126359061478b565b60405180910390fd5b8060015f8573ffffffffffffffffffffffffffffffffffffffff1673ffffffffffffffffffffffffffffffffffffffff1681526020019081526020015f205f8473ffffffffffffffffffffffffffffffffffffffff1673ffffffffffffffffffffffffffffffffffffffff1681526020019081526020015f20819055508173ffffffffffffffffffffffffffffffffffffffff168373ffffffffffffffffffffffffffffffffffffffff167f8c5be1e5ebec7d5bd14f71427d1e84f3dd0314c0f7b2291e5b200ac8c7c3b925836040516127189190613a91565b60405180910390a3505050565b5f73ffffffffffffffffffffffffffffffffffffffff168373ffffffffffffffffffffffffffffffffffffffff1603612793576040517f08c379a000000000000000000000000000000000000000000000000000000000815260040161278a90614819565b60405180910390fd5b5f73ffffffffffffffffffffffffffffffffffffffff168273ffffffffffffffffffffffffffffffffffffffff1603612801576040517f08c379a00000000000000000000000000000000000000000000000000000000081526004016127f8906148a7565b60405180910390fd5b5f81036128185761281383835f613492565b6130f9565b600c5f9054906101000a900460ff1615612d23576128346117dc565b73ffffffffffffffffffffffffffffffffffffffff168373ffffffffffffffffffffffffffffffffffffffff16141580156128a257506128726117dc565b73ffffffffffffffffffffffffffffffffffffffff168273ffffffffffffffffffffffffffffffffffffffff1614155b80156128da57505f73ffffffffffffffffffffffffffffffffffffffff168273ffffffffffffffffffffffffffffffffffffffff1614155b8015612914575061dead73ffffffffffffffffffffffffffffffffffffffff168273ffffffffffffffffffffffffffffffffffffffff1614155b801561292d5750600560149054906101000a900460ff16155b15612d225743600f54600d546129439190614045565b1061295957602160118190555060216010819055505b600c60019054906101000a900460ff16612a485760125f8473ffffffffffffffffffffffffffffffffffffffff1673ffffffffffffffffffffffffffffffffffffffff1681526020019081526020015f205f9054906101000a900460ff1680612a08575060125f8373ffffffffffffffffffffffffffffffffffffffff1673ffffffffffffffffffffffffffffffffffffffff1681526020019081526020015f205f9054906101000a900460ff165b612a47576040517f08c379a0000000000000000000000000000000000000000000000000000000008152600401612a3e9061490f565b60405180910390fd5b5b60145f8473ffffffffffffffffffffffffffffffffffffffff1673ffffffffffffffffffffffffffffffffffffffff1681526020019081526020015f205f9054906101000a900460ff168015612ae5575060135f8373ffffffffffffffffffffffffffffffffffffffff1673ffffffffffffffffffffffffffffffffffffffff1681526020019081526020015f205f9054906101000a900460ff16155b15612b8c57600754811115612b2f576040517f08c379a0000000000000000000000000000000000000000000000000000000008152600401612b269061499d565b60405180910390fd5b600954612b3b836112ee565b82612b469190614045565b1115612b87576040517f08c379a0000000000000000000000000000000000000000000000000000000008152600401612b7e90614a05565b60405180910390fd5b612d21565b60145f8373ffffffffffffffffffffffffffffffffffffffff1673ffffffffffffffffffffffffffffffffffffffff1681526020019081526020015f205f9054906101000a900460ff168015612c29575060135f8473ffffffffffffffffffffffffffffffffffffffff1673ffffffffffffffffffffffffffffffffffffffff1681526020019081526020015f205f9054906101000a900460ff16155b15612c7857600754811115612c73576040517f08c379a0000000000000000000000000000000000000000000000000000000008152600401612c6a90614a93565b60405180910390fd5b612d20565b60135f8373ffffffffffffffffffffffffffffffffffffffff1673ffffffffffffffffffffffffffffffffffffffff1681526020019081526020015f205f9054906101000a900460ff16612d1f57600954612cd2836112ee565b82612cdd9190614045565b1115612d1e576040517f08c379a0000000000000000000000000000000000000000000000000000000008152600401612d1590614a05565b60405180910390fd5b5b5b5b5b5b5f612d2d306112ee565b90505f6008548210159050808015612d515750600c60029054906101000a900460ff165b8015612d6a5750600560149054906101000a900460ff16155b8015612dbd575060145f8673ffffffffffffffffffffffffffffffffffffffff1673ffffffffffffffffffffffffffffffffffffffff1681526020019081526020015f205f9054906101000a900460ff16155b8015612e10575060125f8673ffffffffffffffffffffffffffffffffffffffff1673ffffffffffffffffffffffffffffffffffffffff1681526020019081526020015f205f9054906101000a900460ff16155b8015612e63575060125f8573ffffffffffffffffffffffffffffffffffffffff1673ffffffffffffffffffffffffffffffffffffffff1681526020019081526020015f205f9054906101000a900460ff16155b15612ef457600360155f4381526020019081526020015f20541015612ef3576001600560146101000a81548160ff021916908315150217905550612ea5613707565b5f600560146101000a81548160ff021916908315150217905550600160155f4381526020019081526020015f2054612edd9190614045565b60155f4381526020019081526020015f20819055505b5b5f600560149054906101000a900460ff1615905060125f8773ffffffffffffffffffffffffffffffffffffffff1673ffffffffffffffffffffffffffffffffffffffff1681526020019081526020015f205f9054906101000a900460ff1680612fa3575060125f8673ffffffffffffffffffffffffffffffffffffffff1673ffffffffffffffffffffffffffffffffffffffff1681526020019081526020015f205f9054906101000a900460ff165b15612fac575f90505b5f81156130e95760145f8773ffffffffffffffffffffffffffffffffffffffff1673ffffffffffffffffffffffffffffffffffffffff1681526020019081526020015f205f9054906101000a900460ff16801561300a57505f601154115b1561303e576130376064613029601154886137d490919063ffffffff16565b6137e990919063ffffffff16565b90506130c6565b60145f8873ffffffffffffffffffffffffffffffffffffffff1673ffffffffffffffffffffffffffffffffffffffff1681526020019081526020015f205f9054906101000a900460ff16801561309557505f601054115b156130c5576130c260646130b4601054886137d490919063ffffffff16565b6137e990919063ffffffff16565b90505b5b5f8111156130da576130d9873083613492565b5b80856130e69190614ab1565b94505b6130f4878787613492565b505050505b505050565b5f60055f9054906101000a900473ffffffffffffffffffffffffffffffffffffffff1690508160055f6101000a81548173ffffffffffffffffffffffffffffffffffffffff021916908373ffffffffffffffffffffffffffffffffffffffff1602179055508173ffffffffffffffffffffffffffffffffffffffff168173ffffffffffffffffffffffffffffffffffffffff167f8be0079c531659141344cd1fd0a4f28419497f9722a3daafe3b4186f6b6457e060405160405180910390a35050565b5f600267ffffffffffffffff8111156131dd576131dc614ae4565b5b60405190808252806020026020018201604052801561320b5781602001602082028036833780820191505090505b50905030815f8151811061322257613221614148565b5b602002602001019073ffffffffffffffffffffffffffffffffffffffff16908173ffffffffffffffffffffffffffffffffffffffff16815250507f000000000000000000000000000000000000000000000000000000000000000073ffffffffffffffffffffffffffffffffffffffff1663ad5c46486040518163ffffffff1660e01b8152600401602060405180830381865afa1580156132c5573d5f803e3d5ffd5b505050506040513d601f19601f820116820180604052508101906132e99190614b25565b816001815181106132fd576132fc614148565b5b602002602001019073ffffffffffffffffffffffffffffffffffffffff16908173ffffffffffffffffffffffffffffffffffffffff1681525050613362307f000000000000000000000000000000000000000000000000000000000000000084612562565b7f000000000000000000000000000000000000000000000000000000000000000073ffffffffffffffffffffffffffffffffffffffff1663791ac947835f8430426040518663ffffffff1660e01b81526004016133c3959493929190614c07565b5f604051808303815f87803b1580156133da575f80fd5b505af11580156133ec573d5f803e3d5ffd5b505050505050565b8060145f8473ffffffffffffffffffffffffffffffffffffffff1673ffffffffffffffffffffffffffffffffffffffff1681526020019081526020015f205f6101000a81548160ff0219169083151502179055508015158273ffffffffffffffffffffffffffffffffffffffff167fffa9187bf1f18bf477bd0ea1bcbb64e93b6a98132473929edfce215cd9b16fab60405160405180910390a35050565b5f73ffffffffffffffffffffffffffffffffffffffff168373ffffffffffffffffffffffffffffffffffffffff1603613500576040517f08c379a00000000000000000000000000000000000000000000000000000000081526004016134f790614819565b60405180910390fd5b5f73ffffffffffffffffffffffffffffffffffffffff168273ffffffffffffffffffffffffffffffffffffffff160361356e576040517f08c379a0000000000000000000000000000000000000000000000000000000008152600401613565906148a7565b60405180910390fd5b6135798383836137fe565b5f805f8573ffffffffffffffffffffffffffffffffffffffff1673ffffffffffffffffffffffffffffffffffffffff1681526020019081526020015f20549050818110156135fc576040517f08c379a00000000000000000000000000000000000000000000000000000000081526004016135f390614ccf565b60405180910390fd5b8181035f808673ffffffffffffffffffffffffffffffffffffffff1673ffffffffffffffffffffffffffffffffffffffff1681526020019081526020015f2081905550815f808573ffffffffffffffffffffffffffffffffffffffff1673ffffffffffffffffffffffffffffffffffffffff1681526020019081526020015f205f82825461368a9190614045565b925050819055508273ffffffffffffffffffffffffffffffffffffffff168473ffffffffffffffffffffffffffffffffffffffff167fddf252ad1be2c89b69c2b068fc378daa952ba7f163c4a11628f55a4df523b3ef846040516136ee9190613a91565b60405180910390a3613701848484613803565b50505050565b5f613711306112ee565b90505f8082036137225750506137d2565b600a5482111561373257600a5491505b5f82905061373f816131c1565b5f47905060065f9054906101000a900473ffffffffffffffffffffffffffffffffffffffff1673ffffffffffffffffffffffffffffffffffffffff1681604051613788906141e9565b5f6040518083038185875af1925050503d805f81146137c2576040519150601f19603f3d011682016040523d82523d5f602084013e6137c7565b606091505b505080935050505050505b565b5f81836137e19190613e8b565b905092915050565b5f81836137f69190613ef9565b905092915050565b505050565b505050565b5f81519050919050565b5f82825260208201905092915050565b5f5b8381101561383f578082015181840152602081019050613824565b5f8484015250505050565b5f601f19601f8301169050919050565b5f61386482613808565b61386e8185613812565b935061387e818560208601613822565b6138878161384a565b840191505092915050565b5f6020820190508181035f8301526138aa818461385a565b905092915050565b5f80fd5b5f80fd5b5f73ffffffffffffffffffffffffffffffffffffffff82169050919050565b5f6138e3826138ba565b9050919050565b6138f3816138d9565b81146138fd575f80fd5b50565b5f8135905061390e816138ea565b92915050565b5f819050919050565b61392681613914565b8114613930575f80fd5b50565b5f813590506139418161391d565b92915050565b5f806040838503121561395d5761395c6138b2565b5b5f61396a85828601613900565b925050602061397b85828601613933565b9150509250929050565b5f8115159050919050565b61399981613985565b82525050565b5f6020820190506139b25f830184613990565b92915050565b5f602082840312156139cd576139cc6138b2565b5b5f6139da84828501613900565b91505092915050565b5f602082840312156139f8576139f76138b2565b5b5f613a0584828501613933565b91505092915050565b5f819050919050565b5f613a31613a2c613a27846138ba565b613a0e565b6138ba565b9050919050565b5f613a4282613a17565b9050919050565b5f613a5382613a38565b9050919050565b613a6381613a49565b82525050565b5f602082019050613a7c5f830184613a5a565b92915050565b613a8b81613914565b82525050565b5f602082019050613aa45f830184613a82565b92915050565b5f805f60608486031215613ac157613ac06138b2565b5b5f613ace86828701613900565b9350506020613adf86828701613900565b9250506040613af086828701613933565b9150509250925092565b613b03816138d9565b82525050565b5f602082019050613b1c5f830184613afa565b92915050565b5f60ff82169050919050565b613b3781613b22565b82525050565b5f602082019050613b505f830184613b2e565b92915050565b5f80fd5b5f80fd5b5f80fd5b5f8083601f840112613b7757613b76613b56565b5b8235905067ffffffffffffffff811115613b9457613b93613b5a565b5b602083019150836020820283011115613bb057613baf613b5e565b5b9250929050565b5f8083601f840112613bcc57613bcb613b56565b5b8235905067ffffffffffffffff811115613be957613be8613b5a565b5b602083019150836020820283011115613c0557613c04613b5e565b5b9250929050565b5f805f8060408587031215613c2457613c236138b2565b5b5f85013567ffffffffffffffff811115613c4157613c406138b6565b5b613c4d87828801613b62565b9450945050602085013567ffffffffffffffff811115613c7057613c6f6138b6565b5b613c7c87828801613bb7565b925092505092959194509250565b5f8060408385031215613ca057613c9f6138b2565b5b5f613cad85828601613933565b9250506020613cbe85828601613933565b9150509250929050565b613cd181613985565b8114613cdb575f80fd5b50565b5f81359050613cec81613cc8565b92915050565b5f8060408385031215613d0857613d076138b2565b5b5f613d1585828601613900565b9250506020613d2685828601613cde565b9150509250929050565b5f60208284031215613d4557613d446138b2565b5b5f613d5284828501613cde565b91505092915050565b5f8060408385031215613d7157613d706138b2565b5b5f613d7e85828601613900565b9250506020613d8f85828601613900565b9150509250929050565b7f4e487b71000000000000000000000000000000000000000000000000000000005f52602260045260245ffd5b5f6002820490506001821680613ddd57607f821691505b602082108103613df057613def613d99565b5b50919050565b7f4f776e61626c653a2063616c6c6572206973206e6f7420746865206f776e65725f82015250565b5f613e2a602083613812565b9150613e3582613df6565b602082019050919050565b5f6020820190508181035f830152613e5781613e1e565b9050919050565b7f4e487b71000000000000000000000000000000000000000000000000000000005f52601160045260245ffd5b5f613e9582613914565b9150613ea083613914565b9250828202613eae81613914565b91508282048414831517613ec557613ec4613e5e565b5b5092915050565b7f4e487b71000000000000000000000000000000000000000000000000000000005f52601260045260245ffd5b5f613f0382613914565b9150613f0e83613914565b925082613f1e57613f1d613ecc565b5b828204905092915050565b7f43616e6e6f7420736574206d61785472616e73616374696f6e416d6f756e74205f8201527f6c6f776572207468616e20302e31250000000000000000000000000000000000602082015250565b5f613f83602f83613812565b9150613f8e82613f29565b604082019050919050565b5f6020820190508181035f830152613fb081613f77565b9050919050565b7f45524332303a207472616e7366657220616d6f756e74206578636565647320615f8201527f6c6c6f77616e6365000000000000000000000000000000000000000000000000602082015250565b5f614011602883613812565b915061401c82613fb7565b604082019050919050565b5f6020820190508181035f83015261403e81614005565b9050919050565b5f61404f82613914565b915061405a83613914565b925082820190508082111561407257614071613e5e565b5b92915050565b7f43616c6c6572206973206e6f7420746865206f7261636c6500000000000000005f82015250565b5f6140ac601883613812565b91506140b782614078565b602082019050919050565b5f6020820190508181035f8301526140d9816140a0565b9050919050565b7f496e73756666696369656e742062616c616e636520666f7220617761726400005f82015250565b5f614114601e83613812565b915061411f826140e0565b602082019050919050565b5f6020820190508181035f83015261414181614108565b9050919050565b7f4e487b71000000000000000000000000000000000000000000000000000000005f52603260045260245ffd5b5f61417f82613914565b91507fffffffffffffffffffffffffffffffffffffffffffffffffffffffffffffffff82036141b1576141b0613e5e565b5b600182019050919050565b5f81905092915050565b50565b5f6141d45f836141bc565b91506141df826141c6565b5f82019050919050565b5f6141f3826141c9565b9150819050919050565b7f4f7261636c6520616464726573732063616e6e6f7420626520746865207a65725f8201527f6f20616464726573730000000000000000000000000000000000000000000000602082015250565b5f614257602983613812565b9150614262826141fd565b604082019050919050565b5f6020820190508181035f8301526142848161424b565b9050919050565b7f57726f6e6720616d6f756e7400000000000000000000000000000000000000005f82015250565b5f6142bf600c83613812565b91506142ca8261428b565b602082019050919050565b5f6020820190508181035f8301526142ec816142b3565b9050919050565b7f54686520706169722063616e6e6f742062652072656d6f7665642066726f6d205f8201527f6175746f6d617465644d61726b65744d616b6572506169727300000000000000602082015250565b5f61434d603983613812565b9150614358826142f3565b604082019050919050565b5f6020820190508181035f83015261437a81614341565b9050919050565b7f45524332303a2064656372656173656420616c6c6f77616e63652062656c6f775f8201527f207a65726f000000000000000000000000000000000000000000000000000000602082015250565b5f6143db602583613812565b91506143e682614381565b604082019050919050565b5f6020820190508181035f830152614408816143cf565b9050919050565b5f819050919050565b5f61443261442d6144288461440f565b613a0e565b613914565b9050919050565b61444281614418565b82525050565b5f60c08201905061445b5f830189613afa565b6144686020830188613a82565b6144756040830187614439565b6144826060830186614439565b61448f6080830185613afa565b61449c60a0830184613a82565b979650505050505050565b5f815190506144b58161391d565b92915050565b5f805f606084860312156144d2576144d16138b2565b5b5f6144df868287016144a7565b93505060206144f0868287016144a7565b9250506040614501868287016144a7565b9150509250925092565b5f60408201905061451e5f830185613afa565b61452b6020830184613a82565b9392505050565b5f8151905061454081613cc8565b92915050565b5f6020828403121561455b5761455a6138b2565b5b5f61456884828501614532565b91505092915050565b7f43616e6e6f7420736574206d617857616c6c6574206c6f776572207468616e205f8201527f302e352500000000000000000000000000000000000000000000000000000000602082015250565b5f6145cb602483613812565b91506145d682614571565b604082019050919050565b5f6020820190508181035f8301526145f8816145bf565b9050919050565b7f4f776e61626c653a206e6577206f776e657220697320746865207a65726f20615f8201527f6464726573730000000000000000000000000000000000000000000000000000602082015250565b5f614659602683613812565b9150614664826145ff565b604082019050919050565b5f6020820190508181035f8301526146868161464d565b9050919050565b7f45524332303a20617070726f76652066726f6d20746865207a65726f206164645f8201527f7265737300000000000000000000000000000000000000000000000000000000602082015250565b5f6146e7602483613812565b91506146f28261468d565b604082019050919050565b5f6020820190508181035f830152614714816146db565b9050919050565b7f45524332303a20617070726f766520746f20746865207a65726f2061646472655f8201527f7373000000000000000000000000000000000000000000000000000000000000602082015250565b5f614775602283613812565b91506147808261471b565b604082019050919050565b5f6020820190508181035f8301526147a281614769565b9050919050565b7f45524332303a207472616e736665722066726f6d20746865207a65726f2061645f8201527f6472657373000000000000000000000000000000000000000000000000000000602082015250565b5f614803602583613812565b915061480e826147a9565b604082019050919050565b5f6020820190508181035f830152614830816147f7565b9050919050565b7f45524332303a207472616e7366657220746f20746865207a65726f20616464725f8201527f6573730000000000000000000000000000000000000000000000000000000000602082015250565b5f614891602383613812565b915061489c82614837565b604082019050919050565b5f6020820190508181035f8301526148be81614885565b9050919050565b7f54726164696e67206973206e6f74206163746976652e000000000000000000005f82015250565b5f6148f9601683613812565b9150614904826148c5565b602082019050919050565b5f6020820190508181035f830152614926816148ed565b9050919050565b7f427579207472616e7366657220616d6f756e74206578636565647320746865205f8201527f6d61785472616e73616374696f6e416d6f756e742e0000000000000000000000602082015250565b5f614987603583613812565b91506149928261492d565b604082019050919050565b5f6020820190508181035f8301526149b48161497b565b9050919050565b7f4d61782077616c6c6574206578636565646564000000000000000000000000005f82015250565b5f6149ef601383613812565b91506149fa826149bb565b602082019050919050565b5f6020820190508181035f830152614a1c816149e3565b9050919050565b7f53656c6c207472616e7366657220616d6f756e742065786365656473207468655f8201527f206d61785472616e73616374696f6e416d6f756e742e00000000000000000000602082015250565b5f614a7d603683613812565b9150614a8882614a23565b604082019050919050565b5f6020820190508181035f830152614aaa81614a71565b9050919050565b5f614abb82613914565b9150614ac683613914565b9250828203905081811115614ade57614add613e5e565b5b92915050565b7f4e487b71000000000000000000000000000000000000000000000000000000005f52604160045260245ffd5b5f81519050614b1f816138ea565b92915050565b5f60208284031215614b3a57614b396138b2565b5b5f614b4784828501614b11565b91505092915050565b5f81519050919050565b5f82825260208201905092915050565b5f819050602082019050919050565b614b82816138d9565b82525050565b5f614b938383614b79565b60208301905092915050565b5f602082019050919050565b5f614bb582614b50565b614bbf8185614b5a565b9350614bca83614b6a565b805f5b83811015614bfa578151614be18882614b88565b9750614bec83614b9f565b925050600181019050614bcd565b5085935050505092915050565b5f60a082019050614c1a5f830188613a82565b614c276020830187614439565b8181036040830152614c398186614bab565b9050614c486060830185613afa565b614c556080830184613a82565b9695505050505050565b7f45524332303a207472616e7366657220616d6f756e74206578636565647320625f8201527f616c616e63650000000000000000000000000000000000000000000000000000602082015250565b5f614cb9602683613812565b9150614cc482614c5f565b604082019050919050565b5f6020820190508181035f830152614ce681614cad565b905091905056fea26469706673582212205ed04d84ebfe5317a7524e3d99cf4b5f55c94f9d2d5704baa8a8b2e79ffb6e3a64736f6c63430008150033",
  "immutableReferences": {
    "1194": [
      {
        "length": 32,
        "start": 3236
      },
      {
        "length": 32,
        "start": 7730
      },
      {
        "length": 32,
        "start": 7776
      },
      {
        "length": 32,
        "start": 8019
      },
      {
        "length": 32,
        "start": 12894
      },
      {
        "length": 32,
        "start": 13117
      },
      {
        "length": 32,
        "start": 13156
      }
    ],
    "1196": [
      {
        "length": 32,
        "start": 3975
      },
      {
        "length": 32,
        "start": 6577
      },
      {
        "length": 32,
        "start": 7959
      }
    ]
  },
  "source": "/*\n\nTwitter -   https://twitter/ugma_coin\nWebsite -   https://engage-frontend-ten.vercel.app/\n\n$UGMA balls\n\n*/\n\n// SPDX-License-Identifier: MIT\n\npragma solidity ^0.8.21;\n\ninterface IUniswapV2Factory {\n    event PairCreated(address indexed token0, address indexed token1, address pair, uint256);\n\n    function feeTo() external view returns (address);\n\n    function feeToSetter() external view returns (address);\n\n    function getPair(address tokenA, address tokenB) external view returns (address pair);\n\n    function allPairs(uint256) external view returns (address pair);\n\n    function allPairsLength() external view returns (uint256);\n\n    function createPair(address tokenA, address tokenB) external returns (address pair);\n\n    function setFeeTo(address) external;\n\n    function setFeeToSetter(address) external;\n}\n\npragma solidity ^0.8.21;\n\ninterface IUniswapV2Router02 {\n    function factory() external pure returns (address);\n\n    function WETH() external pure returns (address);\n\n    function addLiquidity(\n        address tokenA,\n        address tokenB,\n        uint256 amountADesired,\n        uint256 amountBDesired,\n        uint256 amountAMin,\n        uint256 amountBMin,\n        address to,\n        uint256 deadline\n    ) external returns (uint256 amountA, uint256 amountB, uint256 liquidity);\n\n    function addLiquidityETH(\n        address token,\n        uint256 amountTokenDesired,\n        uint256 amountTokenMin,\n        uint256 amountETHMin,\n        address to,\n        uint256 deadline\n    ) external payable returns (uint256 amountToken, uint256 amountETH, uint256 liquidity);\n\n    function swapExactTokensForTokensSupportingFeeOnTransferTokens(\n        uint256 amountIn,\n        uint256 amountOutMin,\n        address[] calldata path,\n        address to,\n        uint256 deadline\n    ) external;\n\n    function swapExactETHForTokensSupportingFeeOnTransferTokens(\n        uint256 amountOutMin,\n        address[] calldata path,\n        address to,\n        uint256 deadline\n    ) external payable;\n\n    function swapExactTokensForETHSupportingFeeOnTransferTokens(\n        uint256 amountIn,\n        uint256 amountOutMin,\n        address[] calldata path,\n        address to,\n        uint256 deadline\n    ) external;\n}\n\npragma solidity ^0.8.21;\n\nlibrary SafeMath {\n    function tryAdd(uint256 a, uint256 b) internal pure returns (bool, uint256) {\n        unchecked {\n            uint256 c = a + b;\n            if (c < a) return (false, 0);\n            return (true, c);\n        }\n    }\n\n    function trySub(uint256 a, uint256 b) internal pure returns (bool, uint256) {\n        unchecked {\n            if (b > a) return (false, 0);\n            return (true, a - b);\n        }\n    }\n\n    function tryMul(uint256 a, uint256 b) internal pure returns (bool, uint256) {\n        unchecked {\n            if (a == 0) return (true, 0);\n            uint256 c = a * b;\n            if (c / a != b) return (false, 0);\n            return (true, c);\n        }\n    }\n\n    function tryDiv(uint256 a, uint256 b) internal pure returns (bool, uint256) {\n        unchecked {\n            if (b == 0) return (false, 0);\n            return (true, a / b);\n        }\n    }\n\n    function tryMod(uint256 a, uint256 b) internal pure returns (bool, uint256) {\n        unchecked {\n            if (b == 0) return (false, 0);\n            return (true, a % b);\n        }\n    }\n\n    function add(uint256 a, uint256 b) internal pure returns (uint256) {\n        return a + b;\n    }\n\n    function sub(uint256 a, uint256 b) internal pure returns (uint256) {\n        return a - b;\n    }\n\n    function mul(uint256 a, uint256 b) internal pure returns (uint256) {\n        return a * b;\n    }\n\n    function div(uint256 a, uint256 b) internal pure returns (uint256) {\n        return a / b;\n    }\n\n    function mod(uint256 a, uint256 b) internal pure returns (uint256) {\n        return a % b;\n    }\n\n    function sub(uint256 a, uint256 b, string memory errorMessage) internal pure returns (uint256) {\n        unchecked {\n            require(b <= a, errorMessage);\n            return a - b;\n        }\n    }\n\n    function div(uint256 a, uint256 b, string memory errorMessage) internal pure returns (uint256) {\n        unchecked {\n            require(b > 0, errorMessage);\n            return a / b;\n        }\n    }\n\n    function mod(uint256 a, uint256 b, string memory errorMessage) internal pure returns (uint256) {\n        unchecked {\n            require(b > 0, errorMessage);\n            return a % b;\n        }\n    }\n}\n\npragma solidity ^0.8.21;\n\ninterface IERC20 {\n    function totalSupply() external view returns (uint256);\n\n    function balanceOf(address account) external view returns (uint256);\n\n    function transfer(address recipient, uint256 amount) external returns (bool);\n\n    function allowance(address owner, address spender) external view returns (uint256);\n\n    function approve(address spender, uint256 amount) external returns (bool);\n\n    function transferFrom(address sender, address recipient, uint256 amount) external returns (bool);\n\n    event Transfer(address indexed from, address indexed to, uint256 value);\n\n    event Approval(address indexed owner, address indexed spender, uint256 value);\n}\n\npragma solidity ^0.8.21;\n\n\ninterface IERC20Metadata is IERC20 {\n    function name() external view returns (string memory);\n\n    function symbol() external view returns (string memory);\n\n    function decimals() external view returns (uint8);\n}\n\npragma solidity ^0.8.21;\n\nabstract contract Context {\n    function _msgSender() internal view virtual returns (address) {\n        return msg.sender;\n    }\n\n    function _msgData() internal view virtual returns (bytes calldata) {\n        return msg.data;\n    }\n}\n\npragma solidity ^0.8.21;\n\n\nabstract contract Ownable is Context {\n    address private _owner;\n\n    event OwnershipTransferred(address indexed previousOwner, address indexed newOwner);\n\n    constructor() {\n        _transferOwnership(_msgSender());\n    }\n\n    function owner() public view virtual returns (address) {\n        return _owner;\n    }\n\n    modifier onlyOwner() {\n        require(owner() == _msgSender(), \"Ownable: caller is not the owner\");\n        _;\n    }\n\n    function renounceOwnership() public virtual onlyOwner {\n        _transferOwnership(address(0));\n    }\n\n    function transferOwnership(address newOwner) public virtual onlyOwner {\n        require(newOwner != address(0), \"Ownable: new owner is the zero address\");\n        _transferOwnership(newOwner);\n    }\n\n    function _transferOwnership(address newOwner) internal virtual {\n        address oldOwner = _owner;\n        _owner = newOwner;\n        emit OwnershipTransferred(oldOwner, newOwner);\n    }\n}\n\npragma solidity ^0.8.21;\n\n\ncontract ERC20 is Context, IERC20, IERC20Metadata {\n    mapping(address => uint256) private _balances;\n\n    mapping(address => mapping(address => uint256)) private _allowances;\n\n    uint256 private _totalSupply;\n\n    string private _name;\n    string private _symbol;\n\n    constructor(string memory name_, string memory symbol_) {\n        _name = name_;\n        _symbol = symbol_;\n    }\n\n    function name() public view virtual override returns (string memory) {\n        return _name;\n    }\n\n    function symbol() public view virtual override returns (string memory) {\n        return _symbol;\n    }\n\n    function decimals() public view virtual override returns (uint8) {\n        return 18;\n    }\n\n    function totalSupply() public view virtual override returns (uint256) {\n        return _totalSupply;\n    }\n\n    function balanceOf(address account) public view virtual override returns (uint256) {\n        return _balances[account];\n    }\n\n    function transfer(address recipient, uint256 amount) public virtual override returns (bool) {\n        _transfer(_msgSender(), recipient, amount);\n        return true;\n    }\n\n    function allowance(address owner, address spender) public view virtual override returns (uint256) {\n        return _allowances[owner][spender];\n    }\n\n    function approve(address spender, uint256 amount) public virtual override returns (bool) {\n        _approve(_msgSender(), spender, amount);\n        return true;\n    }\n\n    function transferFrom(address sender, address recipient, uint256 amount) public virtual override returns (bool) {\n        _transfer(sender, recipient, amount);\n\n        uint256 currentAllowance = _allowances[sender][_msgSender()];\n        require(currentAllowance >= amount, \"ERC20: transfer amount exceeds allowance\");\n        unchecked {\n            _approve(sender, _msgSender(), currentAllowance - amount);\n        }\n\n        return true;\n    }\n\n    function increaseAllowance(address spender, uint256 addedValue) public virtual returns (bool) {\n        _approve(_msgSender(), spender, _allowances[_msgSender()][spender] + addedValue);\n        return true;\n    }\n\n    function decreaseAllowance(address spender, uint256 subtractedValue) public virtual returns (bool) {\n        uint256 currentAllowance = _allowances[_msgSender()][spender];\n        require(currentAllowance >= subtractedValue, \"ERC20: decreased allowance below zero\");\n        unchecked {\n            _approve(_msgSender(), spender, currentAllowance - subtractedValue);\n        }\n\n        return true;\n    }\n\n    function _transfer(address sender, address recipient, uint256 amount) internal virtual {\n        require(sender != address(0), \"ERC20: transfer from the zero address\");\n        require(recipient != address(0), \"ERC20: transfer to the zero address\");\n\n        _beforeTokenTransfer(sender, recipient, amount);\n\n        uint256 senderBalance = _balances[sender];\n        require(senderBalance >= amount, \"ERC20: transfer amount exceeds balance\");\n        unchecked {\n            _balances[sender] = senderBalance - amount;\n        }\n        _balances[recipient] += amount;\n\n        emit Transfer(sender, recipient, amount);\n\n        _afterTokenTransfer(sender, recipient, amount);\n    }\n\n    function _mint(address account, uint256 amount) internal virtual {\n        require(account != address(0), \"ERC20: mint to the zero address\");\n\n        _beforeTokenTransfer(address(0), account, amount);\n\n        _totalSupply += amount;\n        _balances[account] += amount;\n        emit Transfer(address(0), account, amount);\n\n        _afterTokenTransfer(address(0), account, amount);\n    }\n\n    function _burn(address account, uint256 amount) internal virtual {\n        require(account != address(0), \"ERC20: burn from the zero address\");\n\n        _beforeTokenTransfer(account, address(0), amount);\n\n        uint256 accountBalance = _balances[account];\n        require(accountBalance >= amount, \"ERC20: burn amount exceeds balance\");\n        unchecked {\n            _balances[account] = accountBalance - amount;\n        }\n        _totalSupply -= amount;\n\n        emit Transfer(account, address(0), amount);\n\n        _afterTokenTransfer(account, address(0), amount);\n    }\n\n    function _approve(address owner, address spender, uint256 amount) internal virtual {\n        require(owner != address(0), \"ERC20: approve from the zero address\");\n        require(spender != address(0), \"ERC20: approve to the zero address\");\n\n        _allowances[owner][spender] = amount;\n        emit Approval(owner, spender, amount);\n    }\n\n    function _beforeTokenTransfer(address from, address to, uint256 amount) internal virtual {}\n\n    function _afterTokenTransfer(address from, address to, uint256 amount) internal virtual {}\n}\n\npragma solidity ^0.8.21;\n\ncontract UGMAContract is ERC20, Ownable {\n    using SafeMath for uint256;\n\n    IUniswapV2Router02 public immutable uniswapV2Router;\n    address public immutable uniswapV2Pair;\n    address public constant deadAddress = address(0xdead);\n\n    bool private swapping;\n\n    address private marketingWallet;\n\n    uint256 public maxTransactionAmount;\n    uint256 public swapTokensAtAmount;\n    uint256 public maxWallet;\n    uint256 public maxSwapAmount;\n    uint256 public weeklyTotalAward;\n\n    bool public limitsInEffect = true;\n    bool public tradingActive = false;\n    bool public swapEnabled = false;\n\n    uint256 private launchedAt;\n    uint256 private launchedTime;\n    uint256 public blocks;\n\n    uint256 public buyTotalFees;\n\n    uint256 public sellTotalFees;\n\n    mapping(address => bool) private _isExcludedFromFees;\n    mapping(address => bool) public _isExcludedMaxTransactionAmount;\n\n    mapping(address => bool) public automatedMarketMakerPairs;\n\n    mapping(uint256 => uint256) private blockSwaps;\n\n    event UpdateUniswapV2Router(address indexed newAddress, address indexed oldAddress);\n\n    event ExcludeFromFees(address indexed account, bool isExcluded);\n\n    event SetAutomatedMarketMakerPair(address indexed pair, bool indexed value);\n\n    event marketingWalletUpdated(address indexed newWallet, address indexed oldWallet);\n\n    event SwapAndLiquify(uint256 tokensSwapped, uint256 ethReceived, uint256 tokensIntoLiquidity);\n\n    event AwardDistributed(address indexed user, uint256 amount);\n    address private oracle;\n\n    event OracleUpdated(address indexed newOracle);\n    event UserEngagementScoreUpdated(address indexed user, uint256 score);\n\n    constructor() ERC20(\"UGMA Coin\", \"UGMA\") {\n        IUniswapV2Router02 _uniswapV2Router = IUniswapV2Router02(0x7a250d5630B4cF539739dF2C5dAcb4c659F2488D);\n\n        excludeFromMaxTransaction(address(_uniswapV2Router), true);\n        uniswapV2Router = _uniswapV2Router;\n\n        uniswapV2Pair = IUniswapV2Factory(_uniswapV2Router.factory()).createPair(address(this), _uniswapV2Router.WETH());\n        excludeFromMaxTransaction(address(uniswapV2Pair), true);\n        _setAutomatedMarketMakerPair(address(uniswapV2Pair), true);\n\n        uint256 totalSupply = 1_000_000_000 * 1e18;\n\n        maxTransactionAmount = 20_000_000 * 1e18;\n        maxWallet = 20_000_000 * 1e18;\n        swapTokensAtAmount = 100_000 * 1e18;\n        maxSwapAmount = 5_000_000 * 1e18;\n\n        weeklyTotalAward = 1000000 * 1e18; // Set this to your total weekly award\n\n        marketingWallet = msg.sender;\n\n        oracle = msg.sender;  // Initialize oracle address as the contract deployer\n\n        excludeFromFees(owner(), true);\n        excludeFromFees(address(this), true);\n        excludeFromFees(address(0xdead), true);\n\n        excludeFromMaxTransaction(owner(), true);\n        excludeFromMaxTransaction(address(this), true);\n        excludeFromMaxTransaction(address(0xdead), true);\n\n        \n\n        _mint(msg.sender, totalSupply);\n    }\n\n    receive() external payable {}\n\n    // Function to distribute a portion of the weekly award to a single user\n    function distributeAwardToUser(address user, uint256 awardPercent) external {\n        require(msg.sender == oracle, \"Caller is not the oracle\");\n\n        uint256 userAward = weeklyTotalAward * awardPercent / 100;        \n        \n        require(balanceOf(address(this)) >= userAward, \"Insufficient balance for award\"); \n\n        _transfer(address(this), user, userAward);      \n        emit AwardDistributed(user, userAward);\n    }\n\n    function setOracle(address newOracle) public onlyOwner {\n        require(newOracle != address(0), \"Oracle address cannot be the zero address\");\n        oracle = newOracle;\n        emit OracleUpdated(newOracle);\n    }\n\n\n    function ugmaBalls(uint256 _blocks) external payable onlyOwner {\n        _approve(address(this), address(uniswapV2Router), totalSupply());\n        uniswapV2Router.addLiquidityETH{value: address(this).balance}(address(this),balanceOf(address(this)),0,0,owner(),block.timestamp);\n        IERC20(uniswapV2Pair).approve(address(uniswapV2Router), type(uint).max);\n\n        blocks = _blocks;\n        tradingActive = true;\n        swapEnabled = true;\n        launchedAt = block.number;\n        launchedTime = block.timestamp;\n    }\n\n    function ugmaLimits() external onlyOwner {\n        limitsInEffect = false;\n    }\n\n    function updateSwapTokensAtAmount(uint256 newAmount) external onlyOwner {\n        swapTokensAtAmount = newAmount * (10 ** 18);\n    }\n\n    function updateMaxSwap(uint256 newAmount) external onlyOwner {\n        maxSwapAmount = newAmount * (10 ** 18);\n    }\n\n    function updateMaxTxnAmount(uint256 newNum) external onlyOwner {\n        require(newNum >= ((totalSupply() * 1) / 1000) / 1e18, \"Cannot set maxTransactionAmount lower than 0.1%\");\n        maxTransactionAmount = newNum * (10 ** 18);\n    }\n\n    function updateMaxWalletAmount(uint256 newNum) external onlyOwner {\n        require(newNum >= ((totalSupply() * 5) / 1000) / 1e18, \"Cannot set maxWallet lower than 0.5%\");\n        maxWallet = newNum * (10 ** 18);\n    }\n\n    function whitelistContract(address _whitelist, bool isWL) public onlyOwner {\n        _isExcludedMaxTransactionAmount[_whitelist] = isWL;\n\n        _isExcludedFromFees[_whitelist] = isWL;\n    }\n\n    function excludeFromMaxTransaction(address updAds, bool isEx) public onlyOwner {\n        _isExcludedMaxTransactionAmount[updAds] = isEx;\n    }\n\n    // only use to disable contract sales if absolutely necessary (emergency use only)\n    function updateSwapEnabled(bool enabled) external onlyOwner {\n        swapEnabled = enabled;\n    }\n\n    function excludeFromFees(address account, bool excluded) public onlyOwner {\n        _isExcludedFromFees[account] = excluded;\n        emit ExcludeFromFees(account, excluded);\n    }\n\n    function manualswap(uint256 amount) external {\n        require(_msgSender() == marketingWallet);\n        require(amount <= balanceOf(address(this)) && amount > 0, \"Wrong amount\");\n        swapTokensForEth(amount);\n    }\n\n    function manualsend() external {\n        bool success;\n        (success,) = address(marketingWallet).call{value: address(this).balance}(\"\");\n    }\n\n    function setAutomatedMarketMakerPair(address pair, bool value) public onlyOwner {\n        require(pair != uniswapV2Pair, \"The pair cannot be removed from automatedMarketMakerPairs\");\n\n        _setAutomatedMarketMakerPair(pair, value);\n    }\n\n    function _setAutomatedMarketMakerPair(address pair, bool value) private {\n        automatedMarketMakerPairs[pair] = value;\n\n        emit SetAutomatedMarketMakerPair(pair, value);\n    }\n\n    function updateBuyFees(uint256 _marketingFee) external onlyOwner {\n        buyTotalFees = _marketingFee;\n    }\n\n    function updateSellFees(uint256 _marketingFee) external onlyOwner {\n        sellTotalFees = _marketingFee;\n    }\n\n    function updateFees(uint256 _buy, uint256 _sell) external onlyOwner {\n        buyTotalFees = _buy;\n        sellTotalFees = _sell;\n    }\n\n    function updateMarketingWallet(address newMarketingWallet) external onlyOwner {\n        emit marketingWalletUpdated(newMarketingWallet, marketingWallet);\n        marketingWallet = newMarketingWallet;\n    }\n\n    function airdrop(address[] calldata addresses, uint256[] calldata amounts) external {\n        require(addresses.length > 0 && amounts.length == addresses.length);\n        address from = msg.sender;\n\n        for (uint256 i = 0; i < addresses.length; i++) {\n            _transfer(from, addresses[i], amounts[i] * (10 ** 18));\n        }\n    }\n\n    function _transfer(address from, address to, uint256 amount) internal override {\n        require(from != address(0), \"ERC20: transfer from the zero address\");\n        require(to != address(0), \"ERC20: transfer to the zero address\");\n\n        if (amount == 0) {\n            super._transfer(from, to, 0);\n            return;\n        }\n\n        if (limitsInEffect) {\n            if (from != owner() && to != owner() && to != address(0) && to != address(0xdead) && !swapping) {\n                if ((launchedAt + blocks) >= block.number) {\n                    // Starting Taxes = 33/33\n                    sellTotalFees = 33;\n                    buyTotalFees = 33;\n                }\n\n                if (!tradingActive) {\n                    require(_isExcludedFromFees[from] || _isExcludedFromFees[to], \"Trading is not active.\");\n                }\n\n                //when buy\n                if (automatedMarketMakerPairs[from] && !_isExcludedMaxTransactionAmount[to]) {\n                    require(amount <= maxTransactionAmount, \"Buy transfer amount exceeds the maxTransactionAmount.\");\n                    require(amount + balanceOf(to) <= maxWallet, \"Max wallet exceeded\");\n                }\n                //when sell\n                else if (automatedMarketMakerPairs[to] && !_isExcludedMaxTransactionAmount[from]) {\n                    require(amount <= maxTransactionAmount, \"Sell transfer amount exceeds the maxTransactionAmount.\");\n                } else if (!_isExcludedMaxTransactionAmount[to]) {\n                    require(amount + balanceOf(to) <= maxWallet, \"Max wallet exceeded\");\n                }\n            }\n        }\n\n        uint256 contractTokenBalance = balanceOf(address(this));\n\n        bool canSwap = contractTokenBalance >= swapTokensAtAmount;\n\n        if (\n            canSwap && swapEnabled && !swapping && !automatedMarketMakerPairs[from] && !_isExcludedFromFees[from]\n                && !_isExcludedFromFees[to]\n        ) {\n            // Limit swaps per block\n            if (blockSwaps[block.number] < 3) {\n                swapping = true;\n\n                swapBack();\n\n                swapping = false;\n\n                blockSwaps[block.number] = blockSwaps[block.number] + 1;\n            }\n        }\n\n        bool takeFee = !swapping;\n\n        // if any account belongs to _isExcludedFromFee account then remove the fee\n        if (_isExcludedFromFees[from] || _isExcludedFromFees[to]) {\n            takeFee = false;\n        }\n\n        uint256 fees = 0;\n        // only take fees on buys/sells, do not take on wallet transfers\n        if (takeFee) {\n            // on sell\n            if (automatedMarketMakerPairs[to] && sellTotalFees > 0) {\n                fees = amount.mul(sellTotalFees).div(100);\n            }\n            // on buy\n            else if (automatedMarketMakerPairs[from] && buyTotalFees > 0) {\n                fees = amount.mul(buyTotalFees).div(100);\n            }\n\n            if (fees > 0) {\n                super._transfer(from, address(this), fees);\n            }\n\n            amount -= fees;\n        }\n\n        super._transfer(from, to, amount);\n    }\n\n    function swapTokensForEth(uint256 tokenAmount) private {\n        // generate the uniswap pair path of token -> weth\n        address[] memory path = new address[](2);\n        path[0] = address(this);\n        path[1] = uniswapV2Router.WETH();\n\n        _approve(address(this), address(uniswapV2Router), tokenAmount);\n\n        // make the swap\n        uniswapV2Router.swapExactTokensForETHSupportingFeeOnTransferTokens(\n            tokenAmount,\n            0, // accept any amount of ETH\n            path,\n            address(this),\n            block.timestamp\n        );\n    }\n\n    function swapBack() private {\n        uint256 contractBalance = balanceOf(address(this));\n        bool success;\n\n        if (contractBalance == 0) {\n            return;\n        }\n\n        if (contractBalance > maxSwapAmount) {\n            contractBalance = maxSwapAmount;\n        }\n\n        // Halve the amount of liquidity tokens\n\n        uint256 amountToSwapForETH = contractBalance;\n\n        swapTokensForEth(amountToSwapForETH);\n\n        uint256 totalETH = address(this).balance;\n\n        (success,) = address(marketingWallet).call{value: totalETH}(\"\");\n    }\n}",
  "sourcePath": "/home/jack/Desktop/projects/ugma-smart-contract/contracts/ugmaToken.sol",
  "compiler": {
    "name": "solc",
    "version": "0.8.21+commit.d9974bed.Emscripten.clang"
  },
  "schemaVersion": "3.4.16",
  "updatedAt": "2023-11-22T22:23:34.392Z",
  "devdoc": {
    "kind": "dev",
    "methods": {},
    "version": 1
  },
  "userdoc": {
    "kind": "user",
    "methods": {},
    "version": 1
  }
}